{
  "_format": "hh-sol-artifact-1",
  "contractName": "CurationHub",
  "sourceName": "contracts/CurationHub.sol",
  "abi": [
    {
      "inputs": [
        {
          "internalType": "address",
          "name": "lensHub",
          "type": "address"
        }
      ],
      "stateMutability": "nonpayable",
      "type": "constructor"
    },
    {
      "inputs": [],
      "name": "CurationNotExists",
      "type": "error"
    },
    {
      "inputs": [],
      "name": "NotOwnerOfLensProfile",
      "type": "error"
    },
    {
      "anonymous": false,
      "inputs": [
        {
          "indexed": true,
          "internalType": "address",
          "name": "previousOwner",
          "type": "address"
        },
        {
          "indexed": true,
          "internalType": "address",
          "name": "newOwner",
          "type": "address"
        }
      ],
      "name": "OwnershipTransferred",
      "type": "event"
    },
    {
      "anonymous": false,
      "inputs": [
        {
          "indexed": false,
          "internalType": "address",
          "name": "account",
          "type": "address"
        }
      ],
      "name": "Paused",
      "type": "event"
    },
    {
      "anonymous": false,
      "inputs": [
        {
          "indexed": false,
          "internalType": "address",
          "name": "account",
          "type": "address"
        }
      ],
      "name": "Unpaused",
      "type": "event"
    },
    {
      "inputs": [
        {
          "internalType": "address",
          "name": "user",
          "type": "address"
        },
        {
          "internalType": "bytes32",
          "name": "curationId",
          "type": "bytes32"
        }
      ],
      "name": "canUnlock",
      "outputs": [
        {
          "internalType": "bool",
          "name": "",
          "type": "bool"
        }
      ],
      "stateMutability": "view",
      "type": "function"
    },
    {
      "inputs": [
        {
          "internalType": "bytes32",
          "name": "curationId",
          "type": "bytes32"
        }
      ],
      "name": "contentOf",
      "outputs": [
        {
          "components": [
            {
              "internalType": "uint256",
              "name": "version",
              "type": "uint256"
            },
            {
              "internalType": "address",
              "name": "editor",
              "type": "address"
            },
            {
              "internalType": "uint256",
              "name": "profileId",
              "type": "uint256"
            },
            {
              "internalType": "uint256",
              "name": "pubId",
              "type": "uint256"
            },
            {
              "internalType": "string",
              "name": "contentURI",
              "type": "string"
            }
          ],
          "internalType": "struct DataTypes.CurationContent",
          "name": "",
          "type": "tuple"
        }
      ],
      "stateMutability": "view",
      "type": "function"
    },
    {
      "inputs": [
        {
          "internalType": "bytes32",
          "name": "curationId",
          "type": "bytes32"
        }
      ],
      "name": "contentURIOf",
      "outputs": [
        {
          "internalType": "string",
          "name": "",
          "type": "string"
        }
      ],
      "stateMutability": "view",
      "type": "function"
    },
    {
      "inputs": [
        {
          "components": [
            {
              "internalType": "uint256",
              "name": "profileId",
              "type": "uint256"
            },
            {
              "internalType": "string",
              "name": "contentURI",
              "type": "string"
            },
            {
              "internalType": "address",
              "name": "collectModule",
              "type": "address"
            },
            {
              "internalType": "bytes",
              "name": "collectModuleInitData",
              "type": "bytes"
            },
            {
              "internalType": "address",
              "name": "referenceModule",
              "type": "address"
            },
            {
              "internalType": "bytes",
              "name": "referenceModuleInitData",
              "type": "bytes"
            },
            {
              "components": [
                {
                  "internalType": "uint8",
                  "name": "v",
                  "type": "uint8"
                },
                {
                  "internalType": "bytes32",
                  "name": "r",
                  "type": "bytes32"
                },
                {
                  "internalType": "bytes32",
                  "name": "s",
                  "type": "bytes32"
                },
                {
                  "internalType": "uint256",
                  "name": "deadline",
                  "type": "uint256"
                }
              ],
              "internalType": "struct DataTypes.EIP712Signature",
              "name": "sig",
              "type": "tuple"
            }
          ],
          "internalType": "struct DataTypes.PostWithSigData",
          "name": "vars",
          "type": "tuple"
        },
        {
          "internalType": "string",
          "name": "topic",
          "type": "string"
        }
      ],
      "name": "createCuration",
      "outputs": [
        {
          "internalType": "bytes32",
          "name": "",
          "type": "bytes32"
        }
      ],
      "stateMutability": "nonpayable",
      "type": "function"
    },
    {
      "inputs": [
        {
          "internalType": "bytes32",
          "name": "curationId",
          "type": "bytes32"
        }
      ],
      "name": "creatorOf",
      "outputs": [
        {
          "internalType": "address",
          "name": "",
          "type": "address"
        }
      ],
      "stateMutability": "view",
      "type": "function"
    },
    {
      "inputs": [
        {
          "internalType": "bytes32",
          "name": "curationId",
          "type": "bytes32"
        }
      ],
      "name": "curationExists",
      "outputs": [
        {
          "internalType": "bool",
          "name": "",
          "type": "bool"
        }
      ],
      "stateMutability": "view",
      "type": "function"
    },
    {
      "inputs": [],
      "name": "lensHub",
      "outputs": [
        {
          "internalType": "address",
          "name": "",
          "type": "address"
        }
      ],
      "stateMutability": "view",
      "type": "function"
    },
    {
      "inputs": [
        {
          "internalType": "bytes32",
          "name": "curationId",
          "type": "bytes32"
        }
      ],
      "name": "lensIdsOf",
      "outputs": [
        {
          "internalType": "uint256",
          "name": "",
          "type": "uint256"
        },
        {
          "internalType": "uint256",
          "name": "",
          "type": "uint256"
        }
      ],
      "stateMutability": "view",
      "type": "function"
    },
    {
      "inputs": [],
      "name": "owner",
      "outputs": [
        {
          "internalType": "address",
          "name": "",
          "type": "address"
        }
      ],
      "stateMutability": "view",
      "type": "function"
    },
    {
      "inputs": [
        {
          "internalType": "bytes32",
          "name": "curationId",
          "type": "bytes32"
        }
      ],
      "name": "ownerOf",
      "outputs": [
        {
          "internalType": "address",
          "name": "",
          "type": "address"
        }
      ],
      "stateMutability": "view",
      "type": "function"
    },
    {
      "inputs": [],
      "name": "pause",
      "outputs": [],
      "stateMutability": "nonpayable",
      "type": "function"
    },
    {
      "inputs": [],
      "name": "paused",
      "outputs": [
        {
          "internalType": "bool",
          "name": "",
          "type": "bool"
        }
      ],
      "stateMutability": "view",
      "type": "function"
    },
    {
      "inputs": [],
      "name": "renounceOwnership",
      "outputs": [],
      "stateMutability": "nonpayable",
      "type": "function"
    },
    {
      "inputs": [
        {
          "internalType": "bytes32",
          "name": "curationId",
          "type": "bytes32"
        }
      ],
      "name": "topicOf",
      "outputs": [
        {
          "internalType": "string",
          "name": "",
          "type": "string"
        }
      ],
      "stateMutability": "view",
      "type": "function"
    },
    {
      "inputs": [
        {
          "internalType": "address",
          "name": "newOwner",
          "type": "address"
        }
      ],
      "name": "transferOwnership",
      "outputs": [],
      "stateMutability": "nonpayable",
      "type": "function"
    },
    {
      "inputs": [],
      "name": "unpause",
      "outputs": [],
      "stateMutability": "nonpayable",
      "type": "function"
    },
    {
      "inputs": [
        {
          "components": [
            {
              "internalType": "uint256",
              "name": "profileId",
              "type": "uint256"
            },
            {
              "internalType": "string",
              "name": "contentURI",
              "type": "string"
            },
            {
              "internalType": "uint256",
              "name": "profileIdPointed",
              "type": "uint256"
            },
            {
              "internalType": "uint256",
              "name": "pubIdPointed",
              "type": "uint256"
            },
            {
              "internalType": "bytes",
              "name": "referenceModuleData",
              "type": "bytes"
            },
            {
              "internalType": "address",
              "name": "collectModule",
              "type": "address"
            },
            {
              "internalType": "bytes",
              "name": "collectModuleInitData",
              "type": "bytes"
            },
            {
              "internalType": "address",
              "name": "referenceModule",
              "type": "address"
            },
            {
              "internalType": "bytes",
              "name": "referenceModuleInitData",
              "type": "bytes"
            },
            {
              "components": [
                {
                  "internalType": "uint8",
                  "name": "v",
                  "type": "uint8"
                },
                {
                  "internalType": "bytes32",
                  "name": "r",
                  "type": "bytes32"
                },
                {
                  "internalType": "bytes32",
                  "name": "s",
                  "type": "bytes32"
                },
                {
                  "internalType": "uint256",
                  "name": "deadline",
                  "type": "uint256"
                }
              ],
              "internalType": "struct DataTypes.EIP712Signature",
              "name": "sig",
              "type": "tuple"
            }
          ],
          "internalType": "struct DataTypes.CommentWithSigData",
          "name": "vars",
          "type": "tuple"
        }
      ],
      "name": "updateCuration",
      "outputs": [
        {
          "internalType": "bytes32",
          "name": "",
          "type": "bytes32"
        }
      ],
      "stateMutability": "nonpayable",
      "type": "function"
    }
  ],
  "bytecode": "0x60a060405234801561001057600080fd5b5060405161180f38038061180f83398101604081905261002f916100a6565b61003833610056565b6000805460ff60a01b191690556001600160a01b03166080526100d6565b600080546001600160a01b038381166001600160a01b0319831681178455604051919092169283917f8be0079c531659141344cd1fd0a4f28419497f9722a3daafe3b4186f6b6457e09190a35050565b6000602082840312156100b857600080fd5b81516001600160a01b03811681146100cf57600080fd5b9392505050565b60805161170261010d6000396000818161022c015281816105ab0152818161078e015281816109400152610e6d01526117026000f3fe608060405234801561001057600080fd5b506004361061010a5760003560e01c80638456cb59116100a2578063b02cfdc311610071578063b02cfdc31461022a578063b81376c514610250578063e9b53dc414610276578063f2fde38b14610296578063ff94e4f3146102a957600080fd5b80638456cb59146101dd5780638da5cb5b146101e55780638f296d4c146101f6578063aa576d7c1461021757600080fd5b8063715018a6116100de578063715018a6146101845780637dd564111461018c57806381aadc95146101b7578063825cb9e8146101ca57600080fd5b80629aa2451461010f5780633f4ba83a1461013c5780635c975abb146101465780636f7d82e214610164575b600080fd5b61012261011d3660046110cd565b6102bc565b604080519283526020830191909152015b60405180910390f35b610144610304565b005b600054600160a01b900460ff165b6040519015158152602001610133565b6101776101723660046110cd565b610316565b6040516101339190611133565b6101446103ea565b61019f61019a3660046110cd565b6103fc565b6040516001600160a01b039091168152602001610133565b6101776101c53660046110cd565b610449565b6101546101d8366004611166565b610514565b6101446106c0565b6000546001600160a01b031661019f565b610209610204366004611192565b6106d0565b604051908152602001610133565b6102096102253660046111ce565b6108e0565b7f000000000000000000000000000000000000000000000000000000000000000061019f565b61015461025e3660046110cd565b60009081526001602081905260409091200154151590565b6102896102843660046110cd565b610b42565b604051610133919061126e565b6101446102a43660046112c1565b610c8c565b61019f6102b73660046110cd565b610d0a565b60008181526001602081905260408220908101548291906102f05760405163d56b14ed60e01b815260040160405180910390fd5b806001015481600201549250925050915091565b61030c610d55565b610314610daf565b565b600081815260016020819052604090912001546060906103495760405163d56b14ed60e01b815260040160405180910390fd5b60008281526001602052604090206008018054610365906112de565b80601f0160208091040260200160405190810160405280929190818152602001828054610391906112de565b80156103de5780601f106103b3576101008083540402835291602001916103de565b820191906000526020600020905b8154815290600101906020018083116103c157829003601f168201915b50505050509050919050565b6103f2610d55565b6103146000610e04565b60008181526001602081905260408220015461042b5760405163d56b14ed60e01b815260040160405180910390fd5b6000610436836102bc565b50905061044281610e54565b9392505050565b6000818152600160208190526040909120908101546060919061047f5760405163d56b14ed60e01b815260040160405180910390fd5b60078101805461048e906112de565b80601f01602080910402602001604051908101604052809291908181526020018280546104ba906112de565b80156105075780601f106104dc57610100808354040283529160200191610507565b820191906000526020600020905b8154815290600101906020018083116104ea57829003601f168201915b5050505050915050919050565b600061051e610ee0565b61052782610d0a565b6001600160a01b0316836001600160a01b03161415610548575060016106ba565b610551826103fc565b6001600160a01b0316836001600160a01b03161415610572575060016106ba565b60008061057e846102bc565b6040516352aaef5560e01b8152600481018390526024810182905291935091506000906001600160a01b037f000000000000000000000000000000000000000000000000000000000000000016906352aaef5590604401602060405180830381865afa1580156105f2573d6000803e3d6000fd5b505050506040513d601f19601f820116820180604052508101906106169190611319565b90506001600160a01b03811661063257600093505050506106ba565b6040516370a0823160e01b81526001600160a01b038781166004830152600091908316906370a0823190602401602060405180830381865afa15801561067c573d6000803e3d6000fd5b505050506040513d601f19601f820116820180604052508101906106a09190611336565b11156106b257600193505050506106ba565b600093505050505b92915050565b6106c8610d55565b610314610f2d565b60006106da610ee0565b6106e48235610e54565b6001600160a01b0316336001600160a01b0316146107155760405163064cdb7360e21b815260040160405180910390fd5b6040805183820135602080830191909152606080860135838501528351808403850181529201835281519181019190912060008181526001928390529290922001546107745760405163d56b14ed60e01b815260040160405180910390fd5b604051633d1bab8b60e11b81526000906001600160a01b037f00000000000000000000000000000000000000000000000000000000000000001690637a375716906107c39087906004016113f9565b6020604051808303816000875af11580156107e2573d6000803e3d6000fd5b505050506040513d601f19601f820116820180604052508101906108069190611336565b60008381526001602081905260408220600381018054949550909391929091610830908490611519565b90915550506004810180546001600160a01b031916331790558435600582015560068101829055610864602086018661153f565b610872916007840191610fc0565b506003810154839033907f72f352940694cd0152417bdeae62a5af1e80c3b2d9a5f2412715ce2a1d2f72649060408901359060608a0135908a35886108ba60208e018e61153f565b6040516108cd9796959493929190611586565b60405180910390a350909150505b919050565b60006108ea610ee0565b83356108f581610e54565b6001600160a01b0316336001600160a01b0316146109265760405163064cdb7360e21b815260040160405180910390fd5b604051631da8409960e11b81526000906001600160a01b037f00000000000000000000000000000000000000000000000000000000000000001690633b508132906109759089906004016115c5565b6020604051808303816000875af1158015610994573d6000803e3d6000fd5b505050506040513d601f19601f820116820180604052508101906109b89190611336565b60408051602080820186905281830184905282518083038401815260608301808552815191830191909120600081815260018085529086902080546001600160a01b0319163390811782558183018b9055600282018990556101008701909752908352608085019590955260a0840188905260c084018690529495509160e00190610a45908b018b61153f565b8080601f01602080910402602001604051908101604052809392919081815260200183838082843760009201919091525050509152508051600383019081556020808301516004850180546001600160a01b0319166001600160a01b03909216919091179055604083015160058501556060830151600685015560808301518051610ad69260078701920190611044565b50610ae8915050600882018888610fc0565b5081337fe711fb125866b2e7cd864c8ac3ae4b8549e44c5759da963dba048c2eeacb67ad8686610b1b60208e018e61153f565b8d8d604051610b2f96959493929190611699565b60405180910390a3509695505050505050565b610b7d6040518060a001604052806000815260200160006001600160a01b031681526020016000815260200160008152602001606081525090565b600082815260016020819052604090912090810154610baf5760405163d56b14ed60e01b815260040160405180910390fd5b6040805160a081018252600383018054825260048401546001600160a01b0316602083015260058401549282019290925260068301546060820152600783018054919291608084019190610c02906112de565b80601f0160208091040260200160405190810160405280929190818152602001828054610c2e906112de565b8015610c7b5780601f10610c5057610100808354040283529160200191610c7b565b820191906000526020600020905b815481529060010190602001808311610c5e57829003601f168201915b505050505081525050915050919050565b610c94610d55565b6001600160a01b038116610cfe5760405162461bcd60e51b815260206004820152602660248201527f4f776e61626c653a206e6577206f776e657220697320746865207a65726f206160448201526564647265737360d01b60648201526084015b60405180910390fd5b610d0781610e04565b50565b600081815260016020819052604082200154610d395760405163d56b14ed60e01b815260040160405180910390fd5b506000908152600160205260409020546001600160a01b031690565b6000546001600160a01b031633146103145760405162461bcd60e51b815260206004820181905260248201527f4f776e61626c653a2063616c6c6572206973206e6f7420746865206f776e65726044820152606401610cf5565b610db7610f70565b6000805460ff60a01b191690557f5db9ee0a495bf2e6ff9c91a7834c1ba4fdd244a5e8aa4e537bd38aeae4b073aa335b6040516001600160a01b03909116815260200160405180910390a1565b600080546001600160a01b038381166001600160a01b0319831681178455604051919092169283917f8be0079c531659141344cd1fd0a4f28419497f9722a3daafe3b4186f6b6457e09190a35050565b6040516331a9108f60e11b8152600481018290526000907f00000000000000000000000000000000000000000000000000000000000000006001600160a01b031690636352211e90602401602060405180830381865afa158015610ebc573d6000803e3d6000fd5b505050506040513d601f19601f820116820180604052508101906106ba9190611319565b600054600160a01b900460ff16156103145760405162461bcd60e51b815260206004820152601060248201526f14185d5cd8589b194e881c185d5cd95960821b6044820152606401610cf5565b610f35610ee0565b6000805460ff60a01b1916600160a01b1790557f62e78cea01bee320cd4e420270b5ea74000d11b0c9f74754ebdbfc544b05a258610de73390565b600054600160a01b900460ff166103145760405162461bcd60e51b815260206004820152601460248201527314185d5cd8589b194e881b9bdd081c185d5cd95960621b6044820152606401610cf5565b828054610fcc906112de565b90600052602060002090601f016020900481019282610fee5760008555611034565b82601f106110075782800160ff19823516178555611034565b82800160010185558215611034579182015b82811115611034578235825591602001919060010190611019565b506110409291506110b8565b5090565b828054611050906112de565b90600052602060002090601f0160209004810192826110725760008555611034565b82601f1061108b57805160ff1916838001178555611034565b82800160010185558215611034579182015b8281111561103457825182559160200191906001019061109d565b5b8082111561104057600081556001016110b9565b6000602082840312156110df57600080fd5b5035919050565b6000815180845260005b8181101561110c576020818501810151868301820152016110f0565b8181111561111e576000602083870101525b50601f01601f19169290920160200192915050565b60208152600061044260208301846110e6565b6001600160a01b0381168114610d0757600080fd5b80356108db81611146565b6000806040838503121561117957600080fd5b823561118481611146565b946020939093013593505050565b6000602082840312156111a457600080fd5b813567ffffffffffffffff8111156111bb57600080fd5b82016101a0818503121561044257600080fd5b6000806000604084860312156111e357600080fd5b833567ffffffffffffffff808211156111fb57600080fd5b90850190610140828803121561121057600080fd5b9093506020850135908082111561122657600080fd5b818601915086601f83011261123a57600080fd5b81358181111561124957600080fd5b87602082850101111561125b57600080fd5b6020830194508093505050509250925092565b602081528151602082015260018060a01b03602083015116604082015260408201516060820152606082015160808201526000608083015160a0808401526112b960c08401826110e6565b949350505050565b6000602082840312156112d357600080fd5b813561044281611146565b600181811c908216806112f257607f821691505b6020821081141561131357634e487b7160e01b600052602260045260246000fd5b50919050565b60006020828403121561132b57600080fd5b815161044281611146565b60006020828403121561134857600080fd5b5051919050565b6000808335601e1984360301811261136657600080fd5b830160208101925035905067ffffffffffffffff81111561138657600080fd5b80360383131561139557600080fd5b9250929050565b81835281816020850137506000828201602090810191909152601f909101601f19169091010190565b803560ff81168082146113d757600080fd5b8352506020818101359083015260408082013590830152606090810135910152565b60208152813560208201526000611413602084018461134f565b6101a0604085015261142a6101c08501828461139c565b915050604084013560608401526060840135608084015261144e608085018561134f565b601f19808685030160a087015261146684838561139c565b935061147460a0880161115b565b6001600160a01b03811660c0880152925061149260c088018861134f565b93509150808685030160e08701526114ab84848461139c565b93506114b960e0880161115b565b925061010091506114d4828701846001600160a01b03169052565b6114e08288018861134f565b935091506101208187860301818801526114fb85858561139c565b945061150d6101408801828a016113c5565b50929695505050505050565b6000821982111561153a57634e487b7160e01b600052601160045260246000fd5b500190565b6000808335601e1984360301811261155657600080fd5b83018035915067ffffffffffffffff82111561157157600080fd5b60200191503681900382131561139557600080fd5b87815286602082015285604082015284606082015283608082015260c060a082015260006115b860c08301848661139c565b9998505050505050505050565b602081528135602082015260006115df602084018461134f565b61014060408501526115f66101608501828461139c565b915050604084013561160781611146565b6001600160a01b03166060848101919091526116259085018561134f565b601f198086850301608087015261163d84838561139c565b93506080870135925061164f83611146565b6001600160a01b03831660a087015261166b60a088018861134f565b93509150808685030160c08701525061168583838361139c565b9250505061044260e0840160c086016113c5565b8681528560208201526080604082015260006116b960808301868861139c565b82810360608401526115b881858761139c56fea26469706673582212203cced7d6e03d60f73f3755562215b5ebf89ffbc99a7e2a36a654c9a5a1c0859664736f6c634300080a0033",
  "linkReferences": {},
  "deployedLinkReferences": {}
}